:100000000C945E000C9486000C9486000C94860080
:100010000C9486000C9486000C9486000C944B077C
:100020000C9486000C9486000C9486000C94860038
:100030000C9486000C9486000C9486000C94860028
:100040000C9401070C9486000C94CD070C94A70720
:100050000C9486000C9486000C9486000C94860008
:100060000C94FF070C9486000200000008000201B7
:100070000000030407000000000000000000000072
:1000800000250028002B0000000000240027002A83
:100090000004040404040404040202020202020331
:1000A000030303030301020408102040800102043B
:1000B000081020010204081020001E0911241FBE90
:1000C000CFEFD8E0DEBFCDBF12E0A0E0B1E0EEE5BB
:1000D000F7E202C005900D92A631B107D9F723E0EF
:1000E000A6E1B2E001C01D92AB3AB207E1F710E021
:1000F000CEE5D0E004C02197FE010E94B511CD35B8
:10010000D107C9F70E9466090C94AD130C94000046
:1001100090E0FC01EB55FF4F24918F569F4FFC015F
:100120008491882399F090E0880F991FFC01E9578A
:10013000FF4FA591B491FC01E358FF4F8591949135
:100140008FB7F894EC91E22BEC938FBF089580E485
:1001500080937C0080917A00806480937A00809103
:100160007A0086FDFCCF8091780090917900089507
:1001700090E0FC01E759FF4F2491FC01EB55FF4F44
:100180003491FC01EF56FF4FE491EE23C9F0222396
:1001900039F0233001F1A8F4213019F1223029F18E
:1001A000F0E0EE0FFF1FE358FF4FA591B4918FB71A
:1001B000F894EC91611126C030953E233C938FBF9B
:1001C00008952730A9F02830C9F0243049F78091EC
:1001D00080008F7D03C0809180008F7780938000A6
:1001E000DFCF84B58F7784BDDBCF84B58F7DFBCF28
:1001F0008091B0008F778093B000D2CF8091B00013
:100200008F7DF9CF3E2BDACF3FB7F8948091EE0285
:100210009091EF02A091F002B091F10226B5A89B57
:1002200005C02F3F19F00196A11DB11D3FBFBA2F88
:10023000A92F982F8827BC01CD01620F711D811D48
:10024000911D42E0660F771F881F991F4A95D1F7CD
:1002500008958F929F92AF92BF92CF92DF92EF92CA
:10026000FF924B015C010E9404016B017C010E9422
:1002700004016C197D098E099F09683E7340810550
:100280009105A8F321E0821A9108A108B10888EE2F
:10029000C80E83E0D81EE11CF11C81149104A10456
:1002A000B10429F7FF90EF90DF90CF90BF90AF900F
:1002B0009F908F900895089508959091400189131B
:1002C0000BC0E8E6F0E0E4919FEF90934001E1304D
:1002D00049F028F0E23061F060E00C94B800109230
:1002E0006E00FACF90916F009D7F90936F00F4CFD6
:1002F000909170009D7F9093700091E09093B0007A
:100300009091B100987F94609093B1001092B300E7
:10031000E3CFAF92BF92CF92DF92EF92FF920F9313
:100320001F93CF93DF936C017B018B01040F151F8B
:10033000EB015E01AE18BF08C017D10759F06991F3
:10034000D601ED91FC910190F081E02DC601099557
:10035000892B79F7C501DF91CF911F910F91FF9004
:10036000EF90DF90CF90BF90AF900895FC01538D38
:10037000448D252F30E0842F90E0821B930B54177F
:1003800010F0CF96089501970895FC01918D828D0C
:10039000981761F0A28DAE0FBF2FB11D5D968C91A5
:1003A000928D9F5F9F73928F90E008958FEF9FEFE4
:1003B0000895FC01918D828D981731F0828DE80FA0
:1003C000F11D858D90E008958FEF9FEF0895FC015A
:1003D000918D228D892F90E0805C9F4F821B910927
:1003E0008F739927089582EF92E00E94E70121E040
:1003F000892B09F420E0822F089580E090E0892B7A
:1004000029F00E94F30181110C9400000895FC0171
:10041000A48DA80FB92FB11DA35ABF4F2C91848D65
:1004200090E001968F739927848FA689B7892C93C2
:10043000A089B1898C91837080648C93938D848D15
:10044000981306C00288F389E02D80818F7D808318
:100450000895EF92FF920F931F93CF93DF93EC01D8
:1004600081E0888F9B8D8C8D98131AC0E889F9895B
:10047000808185FF15C09FB7F894EE89FF8960835E
:10048000E889F98980818370806480839FBF81E0DF
:1004900090E0DF91CF911F910F91FF90EF90089521
:1004A000F62E0B8D10E00F5F1F4F0F731127E02EFC
:1004B0008C8D8E110CC00FB607FCFACFE889F98934
:1004C000808185FFF5CFCE010E940702F1CFEB8D31
:1004D000EC0FFD2FF11DE35AFF4FF0829FB7F89408
:1004E0000B8FEA89FB8980818062CFCFCF93DF9326
:1004F000EC01888D8823B9F0AA89BB89E889F9893C
:100500008C9185FD03C0808186FD0DC00FB607FC70
:10051000F7CF8C9185FFF2CF808185FFEDCFCE01A3
:100520000E940702E9CFDF91CF91089508952091AD
:100530005702260F3327331F21323105ECF4209167
:10054000A002FC0190E080E0243069F082E0089590
:10055000A09157022191AC01495C5D4FA40FB52FCA
:10056000B11D2C930196861798F380915702680F5E
:100570006093570280E0089581E008951092A002F0
:1005800081E080939F0210927A0261E082E10E94F2
:10059000B80061E083E10E94B800E9EBF0E08081FF
:1005A0008E7F808380818D7F808388E48093B800F4
:1005B00085E48093BC000895CF93DF9391E09093FE
:1005C00036028823B9F0C091B800D091BA0080916A
:1005D000BC008A7B8093BC0060E082E10E94B8008E
:1005E00060E083E10E94B8000E94BE02D093BA008E
:1005F000C093B800DF91CF9108950895E091CF02A4
:100600008091CE02E81730F4F0E0EA5EFD4F808181
:1006100090E008958FEF9FEF08959091CF02809121
:10062000CE022FEF3FEF981748F4E92FF0E0EA5E93
:10063000FD4F208130E09F5F9093CF02C901089564
:100640008091CE029091CF02891B990B0895CF9291
:10065000DF92EF92FF920F931F93CF93DF937C0172
:10066000CB018A012091A602222389F0EB016B01C4
:10067000C40ED51ECC15DD0569F06991D701ED9149
:10068000FC910190F081E02DC7010995F3CF642F13
:100690000E949702C801DF91CF911F910F91FF90A7
:1006A000EF90DF90CF900895CF93DF931F92CDB757
:1006B000DEB769832091A6022223F9F02091CC02B3
:1006C000203258F021E030E0FC013383228390E0B7
:1006D00080E00F90DF91CF9108958091CD02E82FB7
:1006E000F0E0E955FD4F998190838F5F8093CD02B3
:1006F0008093CC0281E090E0ECCF61E0CE010196E6
:100700000E949702F7CFCF92DF92EF92FF920F9362
:100710001F93CF93DF93FC01C48121E02093A602B5
:10072000C093C7021092CD021092CC028385682B31
:100730008FE893E00E945403D091CC02D13208F0AC
:1007400092C00E9404016B017C018091A002811182
:1007500065C082E08093A00281E080939F028FEFCA
:1007600080939E0210929D02D0939C02A7EAB2E071
:10077000ECE7F2E080E0D81385C010927B02809114
:100780007B02CC0FC82BC0937B0280917A02813010
:1007900009F07CC010927A020E9404016B017C0176
:1007A00080917B028093BB008091A2029091A30272
:1007B000A091A402B091A502892B8A2B8B2B99F0D2
:1007C0000E9404010091A2021091A3022091A402B0
:1007D0003091A5026C197D098E099F09061717072C
:1007E00028073907E0F18091BC0083FDD9CF85EC63
:1007F0008093BC000E9404016B017C018091A002E7
:10080000823009F445C080919E028F3F61F1809152
:100810009E02803241F180919E0225C08091A20209
:100820009091A302A091A402B091A502892B8A2BDA
:100830008B2B09F48ACF0E9404010091A20210912F
:10084000A3022091A4023091A5026C197D098E09A2
:100850009F09061717072807390708F076CF8091F8
:10086000A1020E94DC021092CD021092CC021092E2
:10087000A602DF91CF911F910F91FF90EF90DF9033
:10088000CF9008959D9191938F5F75CF85EEB0CFF6
:100890008091A2029091A302A091A402B091A5021E
:1008A000892B8A2B8B2B09F4A9CF0E94040100917C
:1008B000A2021091A3022091A4023091A5026C190A
:1008C0007D098E099F09061717072807390708F0C1
:1008D00095CFC5CF90E080E008950F931F93CF93FD
:1008E0008C01C62F0E9483036C2F6460C8010E9494
:1008F00083036C2F6B7FC8010E94830383EC90E01D
:100900000197F1F7CF911F910F9108950F931F93C6
:10091000CF93DF938C01D62FC42F607F642B0E946E
:100920006D0480E1D89FB00111246C2BC801DF91C8
:10093000CF911F910F910C946D0440E061E08BE921
:1009400093E00E9486048BE39FE10197F1F70895FD
:10095000CF93DF93CDB7DEB728970FB6F894DEBFFD
:100960000FBECDBF98E0EBE4F1E0DE0111960190FF
:100970000D929A95E1F79091A303961708F46FEF03
:10098000262F30E0220F331F41E050E04C0F5D1F57
:10099000240F351FF9016081680F606840E08BE922
:1009A00093E028960FB6F894DEBF0FBECDBFDF915F
:1009B000CF910C94860441E00E94860481E090E08F
:1009C00008950F931F93CF93DF938B0198E0899F36
:1009D000B0011124606440E08BE993E00E9486043A
:1009E000E801085F1F4F69918BE993E00E94DB04E7
:1009F000C017D107C1F7DF91CF911F910F910895D3
:100A0000CF93DF93EC0188819981009711F00E94C8
:100A10005712198218821D821C821B821A82DF9152
:100A2000CF910895FB0101900020E9F73197AF01C4
:100A3000461B570BDC01ED91FC910280F381E02D08
:100A400009948F929F92AF92BF920F931F93CF936F
:100A5000DF93CDB7DEB7A1970FB6F894DEBF0FBE18
:100A6000CDBF19A2423008F44AE08E010F5D1F4F3E
:100A7000842E912CB12CA12CA50194010E9403106D
:100A8000E62FB901CA01EA3004F5E05DD801EE9322
:100A90008D01232B242B252B79F790E080E01097F4
:100AA00029F0BD0182EF92E00E941205A1960FB6D7
:100AB000F894DEBF0FBECDBFDF91CF911F910F9194
:100AC000BF90AF909F908F900895E95CDFCF4F92D9
:100AD0005F926F927F928F929F92AF92BF92CF92CE
:100AE000DF92EF92FF920F931F93CF936B017C01E4
:100AF000742EAC019B010E94941163E871E0811196
:100B000026C046015701E894B7F82FEF3FEF4FE7B3
:100B10005FE7C501B4010E94941181110CC02FEF51
:100B20003FEF4FE75FE7C501B4010E947E0E67E823
:100B300071E0181664F02FEF3FEF4FE75FE4C70155
:100B4000B6010E9449111816ACF46BE871E082EF0F
:100B500092E0CF911F910F91FF90EF90DF90CF9097
:100B6000BF90AF909F908F907F906F905F904F90CD
:100B70000C9412052FEF3FEF4FE75FECC701B60172
:100B80000E947E0E87FDE1CF20E030E0A901C70181
:100B9000B6010E947E0E10E000E087FF0AC06DE201
:100BA00082EF92E00E9429028C01F7FAF094F7F8A4
:100BB000F094C0E060E070E080E09FE37C1641F0DC
:100BC00020E030E040E251E40E94A110CF5FF6CF78
:100BD000A70196010E9435102B013C010E941A11B9
:100BE0004B015C014AE00E9421057C01E00EF11EF0
:100BF000CC23C1F1C501B4010E94830E9B01AC015D
:100C0000C301B2010E9434104B015C016EE282EF1D
:100C100092E00E942902E80EF91EC15018F120E06E
:100C200030E040E251E4C501B4010E94E40E2B0122
:100C30003C010E941A114B01B12CA12C4AE0C501C4
:100C4000B4010E942105E80EF91EC501B4010E94FD
:100C5000830E9B01AC01C301B2010E9434104B0111
:100C60005C01DBCFC701CF911F910F91FF90EF90F7
:100C7000DF90CF90BF90AF909F908F907F906F90BC
:100C80005F904F9008950C9412050F931F93CF938C
:100C9000DF93EC0188819981009759F02A813B818B
:100CA0002617370730F081E0DF91CF911F910F9128
:100CB00008958B016F5F7F4F0E94E012009759F0FB
:100CC000998388831B830A832C813D81232B59F7C9
:100CD000FC011082E8CF80E0E7CFEF92FF920F9304
:100CE0001F93CF93DF93EC017B01198218821B8243
:100CF0001A821D821C82FB0101900020E9F73197C6
:100D00008F01061B170BB8010E944506811109C00F
:100D1000CE01DF91CF911F910F91FF90EF900C9436
:100D200000051D830C83B70188819981DF91CF91E4
:100D30001F910F91FF90EF900C94A613EF92FF92EA
:100D40000F931F93CF93DF938C017B01EB010990ED
:100D50000020E9F72197C61BD70BBE010E9445066C
:100D6000811109C0C801DF91CF911F910F91FF90B0
:100D7000EF900C940005F801D583C483B7018081FE
:100D80009181DF91CF911F910F91FF90EF900C9483
:100D9000A61385ED8093BC008091A2029091A302DE
:100DA000A091A402B091A5020796A11DB11D23E058
:100DB000B695A795979587952A95D1F72091BC0070
:100DC00024FD03C01092A00208954091A202509108
:100DD000A3026091A4027091A502452B462B472BDC
:100DE00069F30097A105B10541F02AE22A95F1F7D0
:100DF00000C00197A109B109E1CF8091A1020C9433
:100E0000DC021F920F920FB60F9211242F933F9383
:100E10008F939F93AF93BF938091EA029091EB02DF
:100E2000A091EC02B091ED023091E90223E0230F92
:100E30002D3758F50196A11DB11D2093E90280932D
:100E4000EA029093EB02A093EC02B093ED02809142
:100E5000EE029091EF02A091F002B091F1020196A2
:100E6000A11DB11D8093EE029093EF02A093F002BA
:100E7000B093F102BF91AF919F918F913F912F91CC
:100E80000F900FBE0F901F90189526E8230F029623
:100E9000A11DB11DD2CF1F920F920FB60F92112438
:100EA0002F933F934F935F936F937F938F939F9372
:100EB000AF93BF93EF93FF938091D5029091D602A9
:100EC000A091D702B091D802892B8A2B8B2BD1F11C
:100ED0009091D002E091D102F091D20280818927D5
:100EE00080838091D5029091D602A091D702B091D3
:100EF000D802181619061A061B069CF48091D50212
:100F00009091D602A091D702B091D8020197A10981
:100F1000B1098093D5029093D602A093D702B093E3
:100F2000D802FF91EF91BF91AF919F918F917F91E7
:100F30006F915F914F913F912F910F900FBE0F9046
:100F40001F901895809140010E945D01EACF1F9289
:100F50000F920FB60F9211242F933F934F935F93ED
:100F60006F937F938F939F93AF93BF93EF93FF9371
:100F700082EF92E00E940702FF91EF91BF91AF9143
:100F80009F918F917F916F915F914F913F912F91A1
:100F90000F900FBE0F901F9018951F920F920FB6D3
:100FA0000F9211242F938F939F93EF93FF93E091D0
:100FB0000203F09103038081E0910803F09109039B
:100FC00082FD1BC0908180910B038F5F8F732091F6
:100FD0000C03821741F0E0910B03F0E0EE50FD4F5F
:100FE000958F80930B03FF91EF919F918F912F919C
:100FF0000F900FBE0F901F9018958081F4CF1F9215
:101000000F920FB60F9211242F933F934F935F933C
:101010006F937F938F939F93AF93BF93EF93FF93C0
:101020008091B900887F803609F44AC0F0F5883293
:1010300009F4A7C018F5803109F49BC0B8F48823DF
:1010400009F4F9C0883009F494C0FF91EF91BF9181
:10105000AF919F918F917F916F915F914F913F9150
:101060002F910F900FBE0F901F901895883109F4A3
:1010700088C0803251F780939E0214C0803409F4F6
:101080009DC040F48033B9F38833F9F680939E0213
:1010900085ECB0C0803509F485C0883509F496C068
:1010A000883499F60E94C906D0CF883909F48CC0DB
:1010B00038F5883729F050F4883611F0803729F652
:1010C00083E08093A0021092790257C0883809F417
:1010D0007BC0803919F0803809F0B7CF8091790250
:1010E000803208F071C0E091790281E08E0F809328
:1010F00079028091BB00F0E0E75AFD4F80833DC04C
:10110000803B39F0E0F4803A09F479C0883A09F07C
:101110009CCF84E08093A002109258021092570254
:10112000E091CA02F091CB0209958091570281119A
:101130000FC081E0809357021092370209C0803CB3
:1011400009F4A6CF883C09F4A3CF883B09F07DCFF2
:10115000E091580281E08E0F80935802F0E0E95C44
:10116000FD4F80818093BB0090915802809157027F
:1011700029C080917B028093BB0085EC8093BC00EA
:1011800064CF90919D0280919C02981758F5E09150
:101190009D0281E08E0F80939D02F0E0E458FD4FA8
:1011A0008081E9CFE0919D0281E08E0F80939D02C6
:1011B0008091BB00F0E0E458FD4F808390919D0248
:1011C00080919C029817C8F285E8D8CFE0919D02E3
:1011D00081E08E0F80939D028091BB00F0E0E45887
:1011E000FD4F808380919F0281115CCF81E08093CD
:1011F0007A0284EA8093BC001092A00226CF85EC8C
:101200008093BC001092A00280917902803230F469
:10121000E0917902F0E0E75AFD4F10826091790287
:1012200070E0E091C802F091C90289E592E0099569
:10123000109279020ACF10929E0234CFE2EFF2E0D0
:101240001382128288EE93E0A0E0B0E0848395835D
:10125000A683B78327E531E03183208325EC30E096
:101260003587248724EC30E03787268720EC30E070
:10127000318B208B21EC30E0338B228B22EC30E061
:10128000358B248B26EC30E0378B268B118E128E1B
:10129000138E148EEFE8F3E0138212828483958319
:1012A000A683B78389E691E091838083EBE9F3E03D
:1012B000138212828BE791E09183808387E284839B
:1012C00080E1818782E0828713860895CF93DF9340
:1012D000CDB7DEB7C45BD1090FB6F894DEBF0FBE41
:1012E000CDBF789484B5826084BD84B5816084BDAF
:1012F00085B5826085BD85B5816085BD80916E00B4
:10130000816080936E0010928100809181008260E4
:101310008093810080918100816080938100809121
:1013200080008160809380008091B1008460809310
:10133000B1008091B00081608093B00080917A000C
:10134000846080937A0080917A00826080937A0032
:1013500080917A00816080937A0080917A00806821
:1013600080937A001092C100E0910203F091030390
:1013700082E08083E091FE02F091FF021082E09112
:101380000003F091010380E1808310920A03E09151
:101390000603F091070386E08083E0910403F09157
:1013A0000503808180618083E0910403F09105034F
:1013B000808188608083E0910403F091050380813F
:1013C00080688083E0910403F091050380818F7D24
:1013D00080831092CF021092CE021092CD02109212
:1013E000CC020E94BE028BE591E09093CB028093E9
:1013F000CA028CE591E09093C9028093C8021092D2
:10140000A0038091A503823018F098E09093A00388
:101410008093A30362E370E080E090E00E942901E2
:101420006091A6038BE993E00E94830368EE73E06A
:1014300080E090E00E94290160E38BE993E00E9444
:101440006D040BE416E4C8010197F1F760E38BE942
:1014500093E00E946D04C8010197F1F760E38BE906
:1014600093E00E946D0483E592E00197F1F760E25A
:101470008BE993E00E946D046091A003606240E0FC
:101480008BE993E00E94860484E08093A10340E00E
:101490006CE08BE993E00E9486040E949D0482E048
:1014A0008093A20340E066E08BE993E00E9486040B
:1014B00040E062E08BE993E00E9486048BE39FE1C9
:1014C0000197F1F788E08093A60360E08BE993E051
:1014D0000E94830368E371E080E00E94E10460E31E
:1014E00071E081E00E94E10468E271E082E00E9424
:1014F000E10460E271E083E00E94E10468E171E0F0
:1015000084E00E94E10460E171E085E00E94E10472
:1015100068E071E086E00E94E10460E071E087E04D
:101520000E94E10488E00E94880089E00E9488000F
:101530008AE00E9488008BE00E9488008CE00E9474
:10154000880061E088E00E94B80066E970E080E011
:1015500090E00E94290160E088E00E94B80066E9FE
:1015600070E080E090E00E94290160E081E00E944C
:10157000A8046FE871E08BE993E00E94430661E004
:1015800082E00E94A8046EE971E08BE993E00E947A
:1015900043066CED75E080E090E00E9429010E9416
:1015A0009D046BEA71E08BE993E00E94430661E0E1
:1015B00080E00E94A80400E110E0C12CD12C76014B
:1015C0000E94A700092E000CAA0BBB0BC80ED91E47
:1015D000EA1EFB1E6AEB71E08BE993E00E94430672
:1015E00064E670E080E090E00E942901015011095A
:1015F00039F7C701B6010E94850E20E030E040E8CF
:101600005DE30E94E40E6093E5027093E60280932E
:10161000E7029093E8020E949D041E0181EA280ED1
:10162000311C8E010F5F1F4F7801812C912C5401CA
:101630000E94A7004090E5025090E6026090E70209
:101640007090E802BC01990F880B990B0E94850EDF
:10165000A30192010E94341020E030E0A9010E9411
:10166000491118160CF064C10E94A700BC01990F23
:10167000880B990B0E94850EA30192010E943410E1
:10168000D7016D937D938D939D937D019B01AC015B
:10169000C501B4010E9435104B015C0162E070E0AD
:1016A00080E090E00E9429012E143F0409F0C0CF91
:1016B00020E030E040E252E4C501B4010E94A110F4
:1016C000C355DF4F688379838A839B83CD5AD0408B
:1016D000812C912C5401F80161917191819191912A
:1016E0008F01C355DF4F288139814A815B81CD5AF3
:1016F000D0400E9434109B01AC010E94E40E9B017B
:10170000AC01C501B4010E9435104B015C01E0162B
:10171000F10609F720E030E040E252E40E94A11017
:10172000CF54DF4F688379838A839B83C15BD0402A
:101730000E9454112B013C012AE939E949E55FE394
:10174000C355DF4F688179818A819B81CD5AD04012
:101750000E94E40E6B017C012AE939E949E15EE36C
:10176000C301B2010E94E40E9B01AC01C701B601A6
:101770000E9435102B013C01209141013091420122
:1017800040914301509144010E944911181644F4BC
:101790004092410150924201609243017092440193
:1017A00022E538EB4EE75FE3609141017091420121
:1017B00080914301909144010E94E40E6B017C01F1
:1017C00020E030E040E252E40E947E0E87FF06C037
:1017D000C12CD12C40E2E42E42E4F42EC09241010F
:1017E000D0924201E0924301F0924401A701960198
:1017F000C301B2010E94A11020E030E048EC52E4A5
:101800000E94E40E6B017C0120E030E0A9010E94FF
:101810007E0E87FD9BC020E030E048EC52E4C7011B
:10182000B6010E944911181634F4C12CD12C38ECA1
:10183000E32E32E4F32E2091E1023091E202409156
:10184000E3025091E402C301B2010E94491118164B
:1018500044F44092E1025092E2026092E3027092FC
:10186000E40265E172E0CE0189559F4F0E946D064A
:1018700020E030E048EC51E4C701B6010E947E0E42
:1018800087FF68C06CEB71E0CE0189559F4F0E94C5
:101890009E0601E010E061E088E00E94B80061E08F
:1018A0000230110509F060E089E00E94B80061E0B3
:1018B0000330110509F060E08AE00E94B80061E0A1
:1018C0000430110509F060E08BE00E94B80004309C
:1018D000110509F004C2809140018C3009F06DC0FF
:1018E000E8E6F0E0149117FD0FC18CE00E9488003B
:1018F000112309F4D3C0123009F0E7C08091B10080
:10190000887F83608093B10089EF8093B3008FEF6D
:101910009FEFDC018093D5029093D602A093D7026B
:10192000B093D80280917000826080937000ECC008
:101930000E94A700BC01990F880B990B0E94850E8D
:10194000A30192010E94341090589ACEC12CD12C40
:10195000760171CF20E030E048E452E4C701B601DF
:101960000E947E0E87FF0BC064EC71E0CE018955AA
:101970009F4F0E949E0602E010E060E08DCF20E0C5
:1019800030E046E952E4C701B6010E947E0E87FFAF
:101990000AC06CEC71E0CE0189559F4F0E949E06F3
:1019A00003E010E0EACF64ED71E0CE0189559F4F6E
:1019B0000E949E0604E010E0E0CF8F3F09F0A4C033
:1019C0008CE080934001E8E6F0E014911F3F09F4B9
:1019D0009BC0113019F148F0123009F43DC017FDD9
:1019E00093C08CE00E94880086CF14BC15BC84B5DF
:1019F000826084BD85B5816085BDEDE9F0E0E4914C
:101A0000F0E0EE0FFF1FE358FF4F85919491E1EB5B
:101A1000F0E0E491E093D40210E067CF10928000F0
:101A20001092810080918100886080938100809174
:101A30008100816080938100EDE9F0E0E491F0E0C5
:101A4000EE0FFF1FE358FF4F85919491E1EBF0E01B
:101A5000E491E093D30249CF1092B0001092B1000C
:101A60008091B00082608093B0008091B10081606D
:101A70008093B100EDE9F0E0E491F0E0EE0FFF1F9C
:101A8000E358FF4F859194919093D2028093D102B5
:101A9000E1EBF0E0E491E093D00227CF85B5887FB9
:101AA000836085BD8CE787BD8FEF9FEFDC0180935E
:101AB000DD029093DE02A093DF02B093E0028091FA
:101AC0006E00826080936E001FC0113009F0FFC06D
:101AD00080918100887F8160809381008FE39FE106
:101AE00090938900809388008FEF9FEFDC018093B3
:101AF000D9029093DA02A093DB02B093DC028091CA
:101B00006F00826080936F0060E080E00E94A80414
:101B10006CED71E0C1010E946D06C955DF4FA880D0
:101B2000B980C75AD040A114B10409F4DCC0C5552E
:101B3000DF4F08811981CB5AD04001151105E1F022
:101B4000D10114968D919C91080F191FB801C10104
:101B50000E944506882309F4C6C0F1012081318125
:101B600084819581B501820F931F0E94A613D10134
:101B700015961C930E931497F10144815581608151
:101B800071818BE993E00E948901D1018D919C9133
:101B9000009711F00E94571261E080E00E94A804B3
:101BA000C701B6010E941311DB012FE030E00E9453
:101BB000AE1124E630E040E050E00E94A20F49015F
:101BC000A7E0B0E00E94C10F2FE030E040E050E01D
:101BD0000E94A20FB22E10E000E0801691060CF4D5
:101BE00086C06B2D8BE993E00E94DB040F5F1F4FD3
:101BF0000031110591F763EE71E082EF92E00E94EF
:101C0000430642E0C355DF4F688179818A819B8119
:101C1000CD5AD0400E9467056FEE71E082EF92E0EE
:101C20000E94430642E0CF54DF4F688179818A8168
:101C30009B81C15BD0400E94670567EF71E082EF36
:101C400092E00E94430642E0C301B2010E94670590
:101C500061E072E082EF92E00E94430642E0C70139
:101C6000B6010E9467056AE072E082EF92E00E948E
:101C700043066091E1027091E2028091E30290914B
:101C8000E40242E00E94670563E172E082EF92E0C5
:101C90000E94120562E370E080E090E00E9429015A
:101CA000C955DF4F88819981C75AD040009711F0FC
:101CB0000E94571280E090E0892B09F4B2CC0E9478
:101CC000F301882309F4ADCC0E940000AACC1230A5
:101CD00021F0111119CF8FE3E6CE8FE316CE8CE001
:101CE0000E945D0111CFC1010E94000545CF62EC49
:101CF00071E08BE993E00E94430678CF0E94C00E0A
:101D000008F481E00895E89409C097FB3EF49095AB
:101D10008095709561957F4F8F4F9F4F9923A9F0C4
:101D2000F92F96E9BB279395F69587957795679553
:101D3000B795F111F8CFFAF4BB0F11F460FF1BC097
:101D40006F5F7F4F8F4F9F4F16C0882311F096E92A
:101D500011C0772321F09EE8872F762F05C06623D8
:101D600071F096E8862F70E060E02AF09A95660F91
:101D7000771F881FDAF7880F9695879597F908954A
:101D8000990F0008550FAA0BE0E8FEEF161617068C
:101D9000E807F907C0F012161306E407F50798F0F4
:101DA000621B730B840B950B39F40A2661F0232B0D
:101DB000242B252B21F408950A2609F4A140A69589
:101DC0008FEF811D811D08950E94F70E0C94680FFE
:101DD0000E945A0F38F00E94610F20F0952311F0F5
:101DE0000C94510F0C94570F11240C949C0F0E94CB
:101DF000790F70F3959FC1F3950F50E0551F629FC7
:101E0000F001729FBB27F00DB11D639FAA27F00D53
:101E1000B11DAA1F649F6627B00DA11D661F829F7A
:101E20002227B00DA11D621F739FB00DA11D621F5F
:101E3000839FA00D611D221F749F3327A00D611D7C
:101E4000231F849F600D211D822F762F6A2F11245E
:101E50009F5750409AF0F1F088234AF0EE0FFF1F91
:101E6000BB1F661F771F881F91505040A9F79E3FE8
:101E7000510580F00C94510F0C949C0F5F3FE4F3DC
:101E8000983ED4F3869577956795B795F795E7953E
:101E90009F5FC1F7FE2B880F911D9695879597F947
:101EA000089597F99F6780E870E060E008959FEFDC
:101EB00080EC089500240A941616170618060906E1
:101EC000089500240A9412161306140605060895B0
:101ED000092E0394000C11F4882352F0BB0F40F438
:101EE000BF2B11F460FF04C06F5F7F4F8F4F9F4F78
:101EF000089557FD9058440F551F59F05F3F71F0FA
:101F00004795880F97FB991F61F09F3F79F0879560
:101F10000895121613061406551FF2CF4695F1DFE9
:101F200008C0161617061806991FF1CF8695710579
:101F3000610508940895E894BB2766277727CB01AD
:101F400097F90895052E97FB1EF400940E94B90F8F
:101F500057FD07D00E94031007FC03D04EF40C94E9
:101F6000B90F50954095309521953F4F4F4F5F4F9A
:101F7000089590958095709561957F4F8F4F9F4FF5
:101F800008950E942510A59F900DB49F900DA49FC9
:101F9000800D911D112408952F923F924F925F92D0
:101FA0006F927F928F929F92AF92BF92CF92DF9269
:101FB000EF92FF920F931F93CF93DF93CDB7DEB7CE
:101FC000CA1BDB0B0FB6F894DEBF0FBECDBF099462
:101FD0002A88398848885F846E847D848C849B84B9
:101FE000AA84B984C884DF80EE80FD800C811B81C7
:101FF000AA81B981CE0FD11D0FB6F894DEBF0FBEF6
:10200000CDBFED010895A1E21A2EAA1BBB1BFD0155
:102010000DC0AA1FBB1FEE1FFF1FA217B307E407C7
:10202000F50720F0A21BB30BE40BF50B661F771F1F
:10203000881F991F1A9469F76095709580959095FF
:102040009B01AC01BD01CF010895A29FB001B39FD8
:10205000C001A39F700D811D1124911DB29F700DB1
:10206000811D1124911D08955058BB27AA270E9455
:102070004C100C94680F0E945A0F38F00E94610FA8
:1020800020F039F49F3F19F426F40C94570F0EF406
:10209000E095E7FB0C94510FE92F0E94790F58F35C
:1020A000BA17620773078407950720F079F4A6F53D
:1020B0000C949B0F0EF4E0950B2EBA2FA02D0B0164
:1020C000B90190010C01CA01A0011124FF27591B7D
:1020D00099F0593F50F4503E68F11A16F040A22F83
:1020E000232F342F4427585FF3CF469537952795F4
:1020F000A795F0405395C9F77EF41F16BA0B620BF3
:10210000730B840BBAF09150A1F0FF0FBB1F661F39
:10211000771F881FC2F70EC0BA0F621F731F841F7C
:1021200048F4879577956795B795F7959E3F08F0A2
:10213000B0CF9395880F08F09927EE0F9795879564
:1021400008950E94B5100C94680F0E94610F58F01A
:102150000E945A0F40F029F45F3F29F00C94510F70
:1021600051110C949C0F0C94570F0E94790F68F337
:102170009923B1F3552391F3951B550BBB27AA2740
:1021800062177307840738F09F5F5F4F220F331F7A
:10219000441FAA1FA9F335D00E2E3AF0E0E832D042
:1021A00091505040E695001CCAF72BD0FE2F29D045
:1021B000660F771F881FBB1F261737074807AB0717
:1021C000B0E809F0BB0B802DBF01FF2793585F4F8C
:1021D0003AF09E3F510578F00C94510F0C949C0FEF
:1021E0005F3FE4F3983ED4F3869577956795B7956E
:1021F000F7959F5FC9F7880F911D9695879597F979
:102200000895E1E0660F771F881FBB1F62177307F1
:102210008407BA0720F0621B730B840BBA0BEE1F06
:1022200088F7E09508950E941A116894B1110C94F2
:102230009C0F08950E94810F88F09F5798F0B92F46
:102240009927B751B0F0E1F0660F771F881F991FEB
:102250001AF0BA95C9F714C0B13091F00E949B0FE3
:10226000B1E008950C949B0F672F782F8827B85FF3
:1022700039F0B93FCCF3869577956795B395D9F743
:102280003EF490958095709561957F4F8F4F9F4F4D
:1022900008950E94C00E08F48FEF089519F416F403
:1022A0000C94570F0C9499110E94810FB8F3992345
:1022B000C9F3B6F39F57550B87FF0E94A71100245F
:1022C000A0E640EA900180585695979528F4805CE6
:1022D000660F771F881F20F026173707480730F44E
:1022E000621B730B840B202931294A2BA695179466
:1022F0000794202531254A2758F7660F771F881F36
:1023000020F026173707480730F4620B730B840B55
:10231000200D311D411DA09581F7B901842F9158E1
:10232000880F9695879508950E94C00E880B990B8B
:1023300008959F3F31F0915020F4879577956795E8
:10234000B795880F911D9695879597F908959150A7
:102350005040660F771F881FD2F708950E942510FE
:10236000B7FF0895821B930B0895EE0FFF1F059092
:10237000F491E02D09940F931F93CF93DF93823054
:10238000910510F482E090E0E091A903F091AA0396
:1023900030E020E0B0E0A0E0309799F4211531055D
:1023A00009F44AC0281B390B24303105D8F58A813D
:1023B0009B816115710589F1FB0193838283FE0185
:1023C00011C0408151810281138148175907E0F003
:1023D0004817590799F4109761F012960C931297C9
:1023E00013961C933296CF01DF91CF911F910F91DD
:1023F00008950093A9031093AA03F4CF2115310582
:1024000051F04217530738F0A901DB019A01BD01D1
:10241000DF01F801C1CFEF01F9CF9093AA038093B8
:10242000A903CDCFFE01E20FF31F819391932250B8
:10243000310939832883D7CF2091A7033091A8038E
:10244000232B41F420914701309148013093A80398
:102450002093A703209145013091460121153105B4
:1024600041F42DB73EB74091490150914A01241BD8
:10247000350BE091A703F091A803E217F307A0F44E
:102480002E1B3F0B2817390778F0AC014E5F5F4FCA
:102490002417350748F04E0F5F1F5093A803409351
:1024A000A703819391939FCFF0E0E0E09CCFCF937F
:1024B000DF930097E9F0FC01329713821282A0911A
:1024C000A903B091AA03ED0130E020E01097A1F438
:1024D00020813181820F931F2091A7033091A8039F
:1024E0002817390709F061C0F093A803E093A70308
:1024F000DF91CF910895EA01CE17DF07E8F54A8111
:102500005B819E0141155105B1F7E901FB83EA8327
:1025100049915991C40FD51FEC17FD0761F48081D3
:1025200091810296840F951FE901998388838281A6
:1025300093819B838A83F0E0E0E012968D919C91D9
:1025400013970097B9F52D913C911197CD01029603
:10255000820F931F2091A7033091A80328173907F2
:1025600039F6309751F51092AA031092A903B0934F
:10257000A803A093A703BCCFD383C283408151811A
:10258000840F951FC817D90761F44E5F5F4F88818C
:102590009981480F591F518340838A819B8193837E
:1025A00082832115310509F0B0CFF093AA03E0939F
:1025B000A9039ECFFD01DC01C0CF13821282D7CFC9
:1025C000B0E0A0E0E6EEF2E10C94CE0F8C010097B3
:1025D00051F4CB010E94BB118C01C801CDB7DEB70D
:1025E000E0E10C94EA0FFC01E60FF71F9C0122507A
:1025F0003109E217F30708F49DC0D901CD91DC91B0
:102600001197C617D70798F0C530D10530F3CE0122
:1026100004978617970708F3C61BD70B2297C19319
:10262000D1936D937C93CF010E945712D6CF5B015B
:10263000AC1ABD0A4C018C0E9D1EA091A903B0914D
:10264000AA03512C412CF12CE12C109731F58091EB
:10265000A7039091A8038815990509F05CC0461658
:10266000570608F058C080914501909146010097A7
:1026700041F48DB79EB74091490150914A01841BA6
:10268000950BE817F90708F055C0F093A803E093FD
:10269000A703F90171836083A0CF8D919C9111975D
:1026A00012966C90129713967C901397A815B90503
:1026B00059F56C0142E0C40ED11CCA14DB0420F1B0
:1026C000AC014A195B09DA011296159780F0628213
:1026D000738251834083D9016D937C93E114F1049B
:1026E00071F0D7011396FC93EE93129776CF229652
:1026F0008C0F9D1FF90191838083F301EFCFF0933D
:10270000AA03E093A90369CF4816590608F42C01DF
:102710007D01D3019ACFCB010E94BB117C010097B0
:1027200049F0AE01B8010E949D13C8010E945712E2
:10273000870153CF10E000E050CFFB01DC0102C065
:1027400001900D9241505040D8F70895FB01DC01F3
:0E27500001900D920020E1F70895F894FFCF5C
:10275E001F1F1F1F1F1F1F1F001F1F1F1F1F1F1F9A
:10276E0000001F1F1F1F1F1F0000001F1F1F1F1F06
:10277E00000000001F1F1F1F00000000001F1F1F72
:10278E000000000000001F1F000000000000001FDE
:10279E00FF0000A0420000AB0380000000400014C8
:1027AE000054000000000029028901B6017602E7FC
:1027BE0001C501D90100000000540327036A04FD7E
:1027CE000220030D03FE0200000000DB0489016AF3
:1027DE000496026E616E00696E66006F7666004347
:1027EE00524F574420414E414C595A455200763271
:1027FE002E3020424F4F54494E470043414C4942E0
:10280E00524154494E472E2E2E003E0043414C4D10
:10281E002020200041435449564520004558434945
:10282E00544544004348414F544943004D4F4F4493
:10283E003A20005B444154415D204176673A0020C6
:10284E007C205661723A00207C2053636F72653A89
:10285E0000207C204E6F726D3A00207C2050656106
:06286E006B3A000D0A00A8
:00000001FF
