:100000000C945E000C9486000C9486000C94860080
:100010000C9486000C9486000C9486000C9449077E
:100020000C9486000C9486000C9486000C94860038
:100030000C9486000C9486000C9486000C94860028
:100040000C94FF060C9486000C94CB070C94A50727
:100050000C9486000C9486000C9486000C94860008
:100060000C94FD070C9486000200000008000201B9
:100070000000030407000000000000000000000072
:1000800000250028002B0000000000240027002A83
:100090000004040404040404040202020202020331
:1000A000030303030301020408102040800102043B
:1000B000081020010204081020001C0911241FBE92
:1000C000CFEFD8E0DEBFCDBF11E0A0E0B1E0E6E8C1
:1000D000F5E202C005900D92A83FB107D9F723E0E1
:1000E000A8EFB1E001C01D92AD38B207E1F710E012
:1000F000CEE5D0E004C02197FE010E94C910CD35A5
:10010000D107C9F70E9464090C94C1120C94000035
:1001100090E0FC01EB55FF4F24918F569F4FFC015F
:100120008491882399F090E0880F991FFC01E9578A
:10013000FF4FA591B491FC01E358FF4F8591949135
:100140008FB7F894EC91E22BEC938FBF089580E485
:1001500080937C0080917A00806480937A00809103
:100160007A0086FDFCCF8091780090917900089507
:1001700090E0FC01E759FF4F2491FC01EB55FF4F44
:100180003491FC01EF56FF4FE491EE23C9F0222396
:1001900039F0233001F1A8F4213019F1223029F18E
:1001A000F0E0EE0FFF1FE358FF4FA591B4918FB71A
:1001B000F894EC91611126C030953E233C938FBF9B
:1001C00008952730A9F02830C9F0243049F78091EC
:1001D00080008F7D03C0809180008F7780938000A6
:1001E000DFCF84B58F7784BDDBCF84B58F7DFBCF28
:1001F0008091B0008F778093B000D2CF8091B00013
:100200008F7DF9CF3E2BDACF3FB7F8948091D002A3
:100210009091D102A091D202B091D30226B5A89BB1
:1002200005C02F3F19F00196A11DB11D3FBFBA2F88
:10023000A92F982F8827BC01CD01620F711D811D48
:10024000911D42E0660F771F881F991F4A95D1F7CD
:1002500008958F929F92AF92BF92CF92DF92EF92CA
:10026000FF924B015C010E9404016B017C010E9422
:1002700004016C197D098E099F09683E7340810550
:100280009105A8F321E0821A9108A108B10888EE2F
:10029000C80E83E0D81EE11CF11C81149104A10456
:1002A000B10429F7FF90EF90DF90CF90BF90AF900F
:1002B0009F908F900895089508959091400189131B
:1002C0000BC0E8E6F0E0E4919FEF90934001E1304D
:1002D00049F028F0E23061F060E00C94B800109230
:1002E0006E00FACF90916F009D7F90936F00F4CFD6
:1002F000909170009D7F9093700091E09093B0007A
:100300009091B100987F94609093B1001092B300E7
:10031000E3CFAF92BF92CF92DF92EF92FF920F9313
:100320001F93CF93DF936C017B018B01040F151F8B
:10033000EB015E01AE18BF08C017D10759F06991F3
:10034000D601ED91FC910190F081E02DC601099557
:10035000892B79F7C501DF91CF911F910F91FF9004
:10036000EF90DF90CF90BF90AF900895FC01538D38
:10037000448D252F30E0842F90E0821B930B54177F
:1003800010F0CF96089501970895FC01918D828D0C
:10039000981761F0A28DAE0FBF2FB11D5D968C91A5
:1003A000928D9F5F9F73928F90E008958FEF9FEFE4
:1003B0000895FC01918D828D981731F0828DE80FA0
:1003C000F11D858D90E008958FEF9FEF0895FC015A
:1003D000918D228D892F90E0805C9F4F821B910927
:1003E0008F739927089584ED92E00E94E70121E040
:1003F000892B09F420E0822F089580E090E0892B7A
:1004000029F00E94F30181110C9400000895FC0171
:10041000A48DA80FB92FB11DA35ABF4F2C91848D65
:1004200090E001968F739927848FA689B7892C93C2
:10043000A089B1898C91837080648C93938D848D15
:10044000981306C00288F389E02D80818F7D808318
:100450000895EF92FF920F931F93CF93DF93EC01D8
:1004600081E0888F9B8D8C8D98131AC0E889F9895B
:10047000808185FF15C09FB7F894EE89FF8960835E
:10048000E889F98980818370806480839FBF81E0DF
:1004900090E0DF91CF911F910F91FF90EF90089521
:1004A000F62E0B8D10E00F5F1F4F0F731127E02EFC
:1004B0008C8D8E110CC00FB607FCFACFE889F98934
:1004C000808185FFF5CFCE010E940702F1CFEB8D31
:1004D000EC0FFD2FF11DE35AFF4FF0829FB7F89408
:1004E0000B8FEA89FB8980818062CFCFCF93DF9326
:1004F000EC01888D8823B9F0AA89BB89E889F9893C
:100500008C9185FD03C0808186FD0DC00FB607FC70
:10051000F7CF8C9185FFF2CF808185FFEDCFCE01A3
:100520000E940702E9CFDF91CF91089508952091AD
:100530003902260F3327331F21323105ECF4209185
:100540008202FC0190E080E0243069F082E00895AE
:10055000A09139022191AC01475E5D4FA40FB52FE8
:10056000B11D2C930196861798F380913902680F7C
:100570006093390280E0089581E00895109282022C
:1005800081E08093810210925C0261E082E10E942E
:10059000B80061E083E10E94B800E9EBF0E08081FF
:1005A0008E7F808380818D7F808388E48093B800F4
:1005B00085E48093BC000895CF93DF9391E09093FE
:1005C00018028823B9F0C091B800D091BA00809188
:1005D000BC008A7B8093BC0060E082E10E94B8008E
:1005E00060E083E10E94B8000E94BE02D093BA008E
:1005F000C093B800DF91CF9108950895E091B102C2
:100600008091B002E81730F4F0E0E850FE4F8081AE
:1006100090E008958FEF9FEF08959091B10280913F
:10062000B0022FEF3FEF981748F4E92FF0E0E850C1
:10063000FE4F208130E09F5F9093B102C901089581
:100640008091B0029091B102891B990B0895CF92CD
:10065000DF92EF92FF920F931F93CF93DF937C0172
:10066000CB018A0120918802222389F0EB016B01E2
:10067000C40ED51ECC15DD0569F06991D701ED9149
:10068000FC910190F081E02DC7010995F3CF642F13
:100690000E949702C801DF91CF911F910F91FF90A7
:1006A000EF90DF90CF900895CF93DF931F92CDB757
:1006B000DEB76983209188022223F9F02091AE02EF
:1006C000203258F021E030E0FC013383228390E0B7
:1006D00080E00F90DF91CF9108958091AF02E82FD5
:1006E000F0E0E757FD4F998190838F5F8093AF02D1
:1006F0008093AE0281E090E0ECCF61E0CE01019604
:100700000E949702F7CFCF92DF92EF92FF920F9362
:100710001F93CF93DF93FC01C48121E020938802D3
:10072000C093A9021092AF021092AE028385682B8B
:1007300081E793E00E945403D091AE02D13208F0D9
:1007400092C00E9404016B017C01809182028111A0
:1007500065C082E08093820281E0809381028FEF06
:100760008093800210927F02D0937E02A9E8B2E0CB
:10077000EEE5F2E080E0D81385C010925D02809132
:100780005D02CC0FC82BC0935D0280915C0281306A
:1007900009F07CC010925C020E9404016B017C0194
:1007A00080915D028093BB008091840290918502CC
:1007B000A0918602B0918702892B8A2B8B2B99F00E
:1007C0000E9404010091840210918502209186020A
:1007D000309187026C197D098E099F09061717074A
:1007E00028073907E0F18091BC0083FDD9CF85EC63
:1007F0008093BC000E9404016B017C018091820205
:10080000823009F445C0809180028F3F61F1809170
:100810008002803241F18091800225C08091840263
:1008200090918502A0918602B0918702892B8A2B34
:100830008B2B09F48ACF0E9404010091840210914D
:10084000850220918602309187026C197D098E09FC
:100850009F09061717072807390708F076CF8091F8
:1008600083020E94DC021092AF021092AE0210923C
:100870008802DF91CF911F910F91FF90EF90DF9051
:10088000CF9008959D9191938F5F75CF85EEB0CFF6
:100890008091840290918502A0918602B091870296
:1008A000892B8A2B8B2B09F4A9CF0E94040100917C
:1008B00084021091850220918602309187026C1982
:1008C0007D098E099F09061717072807390708F0C1
:1008D00095CFC5CF90E080E008950F931F93CF93FD
:1008E0008C01C62F0E9483036C2F6460C8010E9494
:1008F00083036C2F6B7FC8010E94830383EC90E01D
:100900000197F1F7CF911F910F9108950F931F93C6
:10091000CF93DF938C01D62FC42F607F642B0E946E
:100920006D0480E1D89FB00111246C2BC801DF91C8
:10093000CF911F910F910C946D0440E061E08DE721
:1009400093E00E9486048BE39FE10197F1F70895FD
:10095000CF93DF93CDB7DEB728970FB6F894DEBFFD
:100960000FBECDBF98E0E7E4F1E0DE011196019003
:100970000D929A95E1F790918503961708F46FEF21
:10098000262F30E0220F331F41E050E04C0F5D1F57
:10099000240F351FF9016081680F606840E08DE722
:1009A00093E028960FB6F894DEBF0FBECDBFDF915F
:1009B000CF910C94860441E00E94860481E090E08F
:1009C00008950F931F93CF93DF938B0198E0899F36
:1009D000B0011124606440E08DE793E00E9486043A
:1009E000E801085F1F4F69918DE793E00E94DB04E7
:1009F000C017D107C1F7DF91CF911F910F910895D3
:100A0000CF93DF93EC0188819981009711F00E94C8
:100A10006B11198218821D821C821B821A82DF913F
:100A2000CF910895FB0101900020E9F73197AF01C4
:100A3000461B570BDC01ED91FC910280F381E02D08
:100A400009948F929F92AF92BF920F931F93CF936F
:100A5000DF93CDB7DEB7A1970FB6F894DEBF0FBE18
:100A6000CDBF19A2423008F44AE08E010F5D1F4F3E
:100A7000842E912CB12CA12CA50194010E94720FFF
:100A8000E62FB901CA01EA3004F5E05DD801EE9322
:100A90008D01232B242B252B79F790E080E01097F4
:100AA00029F0BD0184ED92E00E941205A1960FB6D7
:100AB000F894DEBF0FBECDBFDF91CF911F910F9194
:100AC000BF90AF909F908F900895E95CDFCF4F92D9
:100AD0005F926F927F928F929F92AF92BF92CF92CE
:100AE000DF92EF92FF920F931F93CF936B017C01E4
:100AF000742EAC019B010E94BD106FE771E0811163
:100B000026C046015701E894B7F82FEF3FEF4FE7B3
:100B10005FE7C501B4010E94BD1081110CC02FEF29
:100B20003FEF4FE75FE7C501B4010E94ED0D63E8B9
:100B300071E0181664F02FEF3FEF4FE75FE4C70155
:100B4000B6010E94B8101816ACF467E871E084EDA5
:100B500092E0CF911F910F91FF90EF90DF90CF9097
:100B6000BF90AF909F908F907F906F905F904F90CD
:100B70000C9412052FEF3FEF4FE75FECC701B60172
:100B80000E94ED0D87FDE1CF20E030E0A901C70113
:100B9000B6010E94ED0D10E000E087FF0AC06DE293
:100BA00084ED92E00E9429028C01F7FAF094F7F8A4
:100BB000F094C0E060E070E080E09FE37C1641F0DC
:100BC00020E030E040E251E40E941010CF5FF6CF09
:100BD000A70196010E94A40F2B013C010E948910DD
:100BE0004B015C014AE00E9421057C01E00EF11EF0
:100BF000CC23C1F1C501B4010E94F20D9B01AC01EF
:100C0000C301B2010E94A30F4B015C016EE284EDAF
:100C100092E00E942902E80EF91EC15018F120E06E
:100C200030E040E251E4C501B4010E94530E2B01B3
:100C30003C010E9489104B01B12CA12C4AE0C50156
:100C4000B4010E942105E80EF91EC501B4010E94FD
:100C5000F20D9B01AC01C301B2010E94A30F4B0135
:100C60005C01DBCFC701CF911F910F91FF90EF90F7
:100C7000DF90CF90BF90AF909F908F907F906F90BC
:100C80005F904F9008950F931F93CF93DF93EC01E4
:100C900088819981009759F02A813B81261737076F
:100CA00030F081E0DF91CF911F910F9108958B017A
:100CB0006F5F7F4F0E94F411009759F099838883EA
:100CC0001B830A832C813D81232B59F7FC01108261
:100CD000E8CF80E0E7CFEF92FF920F931F93CF937F
:100CE000DF93EC017B01198218821B821A821D821C
:100CF0001C82FB0101900020E9F731978F01061B50
:100D0000170BB8010E944306811109C0CE01DF9183
:100D1000CF911F910F91FF90EF900C9400051D83D0
:100D20000C83B70188819981DF91CF911F910F9139
:100D3000FF90EF900C94BA12EF92FF920F931F93D3
:100D4000CF93DF938C017B01EB0109900020E9F741
:100D50002197C61BD70BBE010E944306811109C013
:100D6000C801DF91CF911F910F91FF90EF900C94EC
:100D70000005F801D583C483B70180819181DF919B
:100D8000CF911F910F91FF90EF900C94BA1285EDC7
:100D90008093BC008091840290918502A09186028C
:100DA000B09187020796A11DB11D23E0B695A795C6
:100DB000979587952A95D1F72091BC0024FD03C013
:100DC00010928202089540918402509185026091B0
:100DD000860270918702452B462B472B69F30097BB
:100DE000A105B10541F02AE22A95F1F700C001976B
:100DF000A109B109E1CF809183020C94DC021F921A
:100E00000F920FB60F9211242F933F938F939F93BE
:100E1000AF93BF938091CC029091CD02A091CE026E
:100E2000B091CF023091CB0223E0230F2D3758F53C
:100E30000196A11DB11D2093CB028093CC0290930B
:100E4000CD02A093CE02B093CF028091D0029091B8
:100E5000D102A091D202B091D3020196A11DB11D81
:100E60008093D0029093D102A093D202B093D30288
:100E7000BF91AF919F918F913F912F910F900FBE96
:100E80000F901F90189526E8230F0296A11DB11D03
:100E9000D2CF1F920F920FB60F9211242F933F9330
:100EA0004F935F936F937F938F939F93AF93BF9372
:100EB000EF93FF938091B7029091B802A091B9028D
:100EC000B091BA02892B8A2B8B2BD1F19091B2026F
:100ED000E091B302F091B4028081892780838091F0
:100EE000B7029091B802A091B902B091BA02181657
:100EF00019061A061B069CF48091B7029091B8025D
:100F0000A091B902B091BA020197A109B1098093E9
:100F1000B7029093B802A093B902B093BA02FF91BE
:100F2000EF91BF91AF919F918F917F916F915F9161
:100F30004F913F912F910F900FBE0F901F901895DA
:100F4000809140010E945D01EACF1F920F920FB67F
:100F50000F9211242F933F934F935F936F937F933F
:100F60008F939F93AF93BF93EF93FF9384ED92E0A2
:100F70000E940702FF91EF91BF91AF919F918F91D6
:100F80007F916F915F914F913F912F910F900FBE85
:100F90000F901F9018951F920F920FB60F92112469
:100FA0002F938F939F93EF93FF93E091E402F0913F
:100FB000E5028081E091EA02F091EB0282FD1BC024
:100FC00090818091ED028F5F8F732091EE028217E6
:100FD00041F0E091ED02F0E0EC52FD4F958F8093EF
:100FE000ED02FF91EF919F918F912F910F900FBE86
:100FF0000F901F9018958081F4CF1F920F920FB61B
:101000000F9211242F933F934F935F936F937F938E
:101010008F939F93AF93BF93EF93FF938091B9000A
:10102000887F803609F44AC0F0F5883209F4A7C0F9
:1010300018F5803109F49BC0B8F4882309F4F9C08D
:10104000883009F494C0FF91EF91BF91AF919F91C7
:101050008F917F916F915F914F913F912F910F9061
:101060000FBE0F901F901895883109F488C0803208
:1010700051F78093800214C0803409F49DC040F47D
:101080008033B9F38833F9F68093800285ECB0C0E1
:10109000803509F485C0883509F496C0883499F6FE
:1010A0000E94C706D0CF883909F48CC038F588373C
:1010B00029F050F4883611F0803729F683E08093C8
:1010C000820210925B0257C0883809F47BC08039D5
:1010D00019F0803809F0B7CF80915B02803208F0B8
:1010E00071C0E0915B0281E08E0F80935B02809182
:1010F000BB00F0E0E55CFD4F80833DC0803B39F0F4
:10110000E0F4803A09F479C0883A09F09CCF84E091
:101110008093820210923A0210923902E091AC025E
:10112000F091AD0209958091390281110FC081E0E3
:10113000809339021092190209C0803C09F4A6CFAD
:10114000883C09F4A3CF883B09F07DCFE0913A02B7
:1011500081E08E0F80933A02F0E0E75EFD4F8081E0
:101160008093BB0090913A028091390229C080910E
:101170005D028093BB0085EC8093BC0064CF9091AE
:101180007F0280917E02981758F5E0917F0281E0FE
:101190008E0F80937F02F0E0E25AFD4F8081E9CF0D
:1011A000E0917F0281E08E0F80937F028091BB00EF
:1011B000F0E0E25AFD4F808390917F0280917E02A1
:1011C0009817C8F285E8D8CFE0917F0281E08E0FB2
:1011D00080937F028091BB00F0E0E25AFD4F808354
:1011E0008091810281115CCF81E080935C0284EA6E
:1011F0008093BC001092820226CF85EC8093BC00C5
:101200001092820280915B02803230F4E0915B02A6
:10121000F0E0E55CFD4F108260915B0270E0E091D0
:10122000AA02F091AB028BE392E0099510925B0267
:101230000ACF1092800234CFE4EDF2E013821282E2
:1012400088EE93E0A0E0B0E084839583A683B78323
:1012500023E531E03183208325EC30E03587248796
:1012600024EC30E03787268720EC30E0318B208B70
:1012700021EC30E0338B228B22EC30E0358B248B59
:1012800026EC30E0378B268B118E128E138E148E47
:10129000E1E7F3E01382128284839583A683B78308
:1012A00085E691E091838083EDE7F3E0138212827B
:1012B00087E791E09183808387E2848380E181875F
:1012C00082E0828713860895CF93DF93CDB7DEB790
:1012D000CE5AD1090FB6F894DEBF0FBECDBF7894B9
:1012E00084B5826084BD84B5816084BD85B582602B
:1012F00085BD85B5816085BD80916E0081608093DC
:101300006E00109281008091810082608093810044
:101310008091810081608093810080918000816054
:10132000809380008091B10084608093B1008091AF
:10133000B00081608093B00080917A0084608093D7
:101340007A0080917A00826080937A0080917A009E
:10135000816080937A0080917A00806880937A001F
:101360001092C100E091E402F091E50282E08083F6
:10137000E091E002F091E1021082E091E202F0914E
:10138000E30280E180831092EC02E091E802F091A8
:10139000E90286E08083E091E602F091E702808135
:1013A00080618083E091E602F091E70280818860AD
:1013B0008083E091E602F091E7028081806880837B
:1013C000E091E602F091E70280818F7D80831092A8
:1013D000B1021092B0021092AF021092AE020E94BF
:1013E000BE028BE591E09093AD028093AC028CE558
:1013F00091E09093AB028093AA02109282038091B5
:101400008703823018F098E09093820380938503DD
:1014100062E370E080E090E00E942901609188031F
:101420008DE793E00E94830368EE73E080E090E034
:101430000E94290160E38DE793E00E946D040BE4B4
:1014400016E4C8010197F1F760E38DE793E00E948D
:101450006D04C8010197F1F760E38DE793E00E9406
:101460006D0483E592E00197F1F760E28DE793E088
:101470000E946D0460918203606240E08DE793E01A
:101480000E94860484E08093830340E06CE08DE753
:1014900093E00E9486040E949D0482E0809384036E
:1014A00040E066E08DE793E00E94860440E062E061
:1014B0008DE793E00E9486048BE39FE10197F1F7AB
:1014C00088E08093880360E08DE793E00E948303C7
:1014D00068E371E080E00E94E10460E371E081E094
:1014E0000E94E10468E271E082E00E94E10460E2AF
:1014F00071E083E00E94E10468E171E084E00E9411
:10150000E10460E171E085E00E94E10468E071E0DF
:1015100086E00E94E10460E071E087E00E94E1045F
:1015200088E00E94880089E00E9488008AE00E948A
:1015300088008BE00E9488008CE00E94880061E0B7
:1015400088E00E94B80066E970E080E090E00E94C8
:10155000290160E088E00E94B80066E970E080E060
:1015600090E00E94290160E081E00E94A8046BE8FD
:1015700071E08DE793E00E94120561E082E00E9435
:10158000A8046AE971E08DE793E00E9412056CED12
:1015900075E080E090E00E9429010E949D0467EAC6
:1015A00071E08DE793E00E94120561E080E00E9407
:1015B000A80400E110E0C12CD12C76010E94A70004
:1015C000092E000CAA0BBB0BC80ED91EEA1EFB1E6F
:1015D00066EB71E08DE793E00E94120564E670E02F
:1015E00080E090E00E9429010150110939F7C701FC
:1015F000B6010E94F40D20E030E040E85DE30E9477
:10160000530E6093C7027093C8028093C9029093EF
:10161000CA020E949D048E010F551F4F44244A9414
:10162000542C3201CE010196C355DF4F9983888334
:10163000CD5AD0401C01C12CD12C76010E94A700AC
:101640008090C7029090C802A090C902B090CA02D0
:10165000BC01990F880B990B0E94F40DA501940110
:101660000E94A30F20E030E0A9010E94B8101816D4
:101670000CF0E1C00E94A700BC01990F880B990BE8
:101680000E94F40DA50194010E94A30FF101619342
:101690007193819391931F019B01AC01C701B60126
:1016A0000E94A40F6B017C0162E070E080E090E09A
:1016B0000E9429010215130509F0C0CF20E030E097
:1016C00040E252E4C701B6010E9410104B015C01D8
:1016D000C12CD12C7601C355DF4FE881F981CD5A59
:1016E000D0406191719181919191C355DF4FF98300
:1016F000E883CD5AD040A50194010E94A30F9B011D
:10170000AC010E94530E9B01AC01C701B6010E94BF
:10171000A40F6B017C01C355DF4F88819981CD5A9D
:10172000D04028163906B9F620E030E040E252E415
:10173000C701B6010E9410106B017C012091C30209
:101740003091C4024091C5025091C6020E94B81067
:10175000181644F4C092C302D092C402E092C502AB
:10176000F092C60266EF71E0CE0189559F4F0E944C
:101770006B0620E030E04AEF54E4C701B6010E9456
:10178000ED0D87FF66C068EB71E0CE0189559F4F74
:101790000E949C06AA24A394B12C61E088E00E94D8
:1017A000B80061E092E0A916B10409F060E089E0B8
:1017B0000E94B80061E0E3E0AE16B10409F060E019
:1017C0008AE00E94B80061E0F4E0AF16B10409F0CD
:1017D00060E08BE00E94B80084E0A816B10409F034
:1017E000EDC1809140018C3009F069C0E8E6F0E07D
:1017F000B490B7FC09C18CE00E948800BB2009F4BA
:10180000D3C082E0B812E4C08091B100887F8360C9
:101810008093B10089EF8093B3004092B702509259
:10182000B8026092B9027092BA0280917000826030
:1018300080937000E9C00E94A700BC01990F880B3B
:10184000990B0E94F40DA50194010E94A30F9058DA
:101850001DCF20E030E44CE156E4C701B6010E9400
:10186000ED0D87FF0CC060EC71E0CE0189559F4FF4
:101870000E949C0652E0A52EB12C60E08FCF20E0A4
:1018800038EB48E057E4C701B6010E94ED0D87FF31
:101890000BC068EC71E0CE0189559F4F0E949C06F9
:1018A00043E0A42EB12CE9CF60ED71E0CE01895563
:1018B0009F4F0E949C0634E0A32EB12CDECF8F3FB9
:1018C00009F0A2C08CE080934001E8E6F0E0B4901B
:1018D0009FEFB91609F498C0E1E0BE1629F1BE16D3
:1018E00050F0F2E0BF1609F43DC0B7FC8DC08CE0AB
:1018F0000E94880086CF14BC15BC84B5826084BD6C
:1019000085B5816085BDEDE9F0E0E491F0E0EE0F92
:10191000FF1FE358FF4F85919491E1EBF0E0E491D4
:10192000E093B602B12C67CF109280001092810034
:101930008091810088608093810080918100816026
:1019400080938100EDE9F0E0E491F0E0EE0FFF1FFD
:10195000E358FF4F85919491E1EBF0E0E491E0933F
:10196000B50249CF1092B0001092B1008091B00042
:1019700082608093B0008091B10081608093B1005B
:10198000EDE9F0E0E491F0E0EE0FFF1FE358FF4FC8
:10199000859194919093B4028093B302E1EBF0E0CF
:1019A000E491E093B20227CF85B5887F836085BD3F
:1019B0008CE787BD4092BF025092C0026092C10284
:1019C0007092C20280916E00826080936E001CC093
:1019D00091E0B912EAC080918100887F8160809394
:1019E00081008FE39FE1909389008093880040926B
:1019F000BB025092BC026092BD027092BE02809106
:101A00006F00826080936F0060E080E00E94A80415
:101A100068ED71E0C8010E946B06C955DF4F8880F0
:101A20009980C75AD0408114910409F4CBC0C555A0
:101A3000DF4FA880B980CB5AD040A114B104C9F0BF
:101A4000F80184819581A80EB91EB501C8010E94D4
:101A50004306882309F4B6C0F801208131818481CE
:101A60009581B401820F931F0E94BA12F801B582CA
:101A7000A482F80144815581608171818DE793E0F2
:101A80000E948901F80180819181009711F00E94E4
:101A90006B1161E080E00E94A80420E030E0A90121
:101AA000C701B6010E94ED0D20E030E0A90187FDDD
:101AB00014C020E030E543E457E4C701B6010E94BA
:101AC000B81020E533EC40E050E0181634F0C701C0
:101AD000B6010E9482109B01AC01AFE0B0E00E9411
:101AE000300F20E533EC40E050E00E94110F490137
:101AF000D90127E030E00E94C2102FE030E040E042
:101B000050E00E94110F322EB12CA12C8A149B049C
:101B10000CF45CC0632D8DE793E00E94DB04FFEFC3
:101B2000AF1ABF0A80E1A816B10481F76FED71E02A
:101B300084ED92E00E94120542E0C701B6010E94C6
:101B400067056BEE71E084ED92E00E9412056091F2
:101B5000C3027091C4028091C5029091C60242E016
:101B60000E94670564EF71E084ED92E00E94120527
:101B700062E370E080E090E00E942901C955DF4FE8
:101B800088819981C75AD040009711F00E946B114B
:101B900080E090E0892B09F445CD0E94F301882371
:101BA00009F440CD0E9400003DCDE2E0BE1621F0D8
:101BB000B1102ACF8FE3FDCE8FE32DCE8CE00E94B3
:101BC0005D0122CFC8010E94000553CF6EEB71E08A
:101BD0008DE793E00E941205A2CF0E942F0E08F419
:101BE00081E00895E89409C097FB3EF490958095B4
:101BF000709561957F4F8F4F9F4F9923A9F0F92FD3
:101C000096E9BB279395F695879577956795B79550
:101C1000F111F8CFFAF4BB0F11F460FF1BC06F5F36
:101C20007F4F8F4F9F4F16C0882311F096E911C048
:101C3000772321F09EE8872F762F05C0662371F069
:101C400096E8862F70E060E02AF09A95660F771F7D
:101C5000881FDAF7880F9695879597F90895990F59
:101C60000008550FAA0BE0E8FEEF16161706E80766
:101C7000F907C0F012161306E407F50798F0621B87
:101C8000730B840B950B39F40A2661F0232B242B5C
:101C9000252B21F408950A2609F4A140A6958FEF7B
:101CA000811D811D08950E94660E0C94D70E0E941E
:101CB000C90E38F00E94D00E20F0952311F00C943C
:101CC000C00E0C94C60E11240C940B0F0E94E80E4B
:101CD00070F3959FC1F3950F50E0551F629FF0017F
:101CE000729FBB27F00DB11D639FAA27F00DB11D98
:101CF000AA1F649F6627B00DA11D661F829F222721
:101D0000B00DA11D621F739FB00DA11D621F839FA7
:101D1000A00D611D221F749F3327A00D611D231F7D
:101D2000849F600D211D822F762F6A2F11249F57CB
:101D300050409AF0F1F088234AF0EE0FFF1FBB1FCE
:101D4000661F771F881F91505040A9F79E3F51058D
:101D500080F00C94C00E0C940B0F5F3FE4F3983EA0
:101D6000D4F3869577956795B795F795E7959F5F37
:101D7000C1F7FE2B880F911D9695879597F90895C9
:101D800097F99F6780E870E060E008959FEF80EC2E
:101D9000089500240A9416161706180609060895D1
:101DA00000240A9412161306140605060895092E37
:101DB0000394000C11F4882352F0BB0F40F4BF2BA6
:101DC00011F460FF04C06F5F7F4F8F4F9F4F0895E6
:101DD00057FD9058440F551F59F05F3F71F04795DC
:101DE000880F97FB991F61F09F3F79F087950895C1
:101DF000121613061406551FF2CF4695F1DF08C0E0
:101E0000161617061806991FF1CF869571056105FC
:101E100008940895E894BB2766277727CB0197F9A4
:101E20000895052E97FB1EF400940E94280F57FD7D
:101E300007D00E94720F07FC03D04EF40C94280FB9
:101E400050954095309521953F4F4F4F5F4F0895E6
:101E500090958095709561957F4F8F4F9F4F089516
:101E60000E94940FA59F900DB49F900DA49F800D8C
:101E7000911D112408952F923F924F925F926F927D
:101E80007F928F929F92AF92BF92CF92DF92EF920A
:101E9000FF920F931F93CF93DF93CDB7DEB7CA1B8B
:101EA000DB0B0FB6F894DEBF0FBECDBF09942A88B6
:101EB000398848885F846E847D848C849B84AA845E
:101EC000B984C884DF80EE80FD800C811B81AA81EB
:101ED000B981CE0FD11D0FB6F894DEBF0FBECDBFB6
:101EE000ED010895A1E21A2EAA1BBB1BFD010DC036
:101EF000AA1FBB1FEE1FFF1FA217B307E407F507BA
:101F000020F0A21BB30BE40BF50B661F771F881F95
:101F1000991F1A9469F760957095809590959B012B
:101F2000AC01BD01CF010895A29FB001B39FC001D4
:101F3000A39F700D811D1124911DB29F700D811DF5
:101F40001124911D08955058BB27AA270E94BB0F4A
:101F50000C94D70E0E94C90E38F00E94D00E20F0CB
:101F600039F49F3F19F426F40C94C60E0EF4E09554
:101F7000E7FB0C94C00EE92F0E94E80E58F3BA1745
:101F8000620773078407950720F079F4A6F50C948F
:101F90000A0F0EF4E0950B2EBA2FA02D0B01B901FC
:101FA00090010C01CA01A0011124FF27591B99F0CF
:101FB000593F50F4503E68F11A16F040A22F232FDB
:101FC000342F4427585FF3CF469537952795A7952B
:101FD000F0405395C9F77EF41F16BA0B620B730BD2
:101FE000840BBAF09150A1F0FF0FBB1F661F771F43
:101FF000881FC2F70EC0BA0F621F731F841F48F4F8
:10200000879577956795B795F7959E3F08F0B0CF80
:102010009395880F08F09927EE0F97958795089567
:102020000E9424100C94D70E0E94D00E58F00E94EB
:10203000C90E40F029F45F3F29F00C94C00E5111F5
:102040000C940B0F0C94C60E0E94E80E68F39923B3
:10205000B1F3552391F3951B550BBB27AA276217A4
:102060007307840738F09F5F5F4F220F331F441FB1
:10207000AA1FA9F335D00E2E3AF0E0E832D09150E5
:102080005040E695001CCAF72BD0FE2F29D0660FD2
:10209000771F881FBB1F261737074807AB07B0E815
:1020A00009F0BB0B802DBF01FF2793585F4F3AF01B
:1020B0009E3F510578F00C94C00E0C940B0F5F3FBF
:1020C000E4F3983ED4F3869577956795B795F795A1
:1020D0009F5FC9F7880F911D9695879597F9089589
:1020E000E1E0660F771F881FBB1F62177307840725
:1020F000BA0720F0621B730B840BBA0BEE1F88F734
:10210000E09508950E9489106894B1110C940B0F0A
:1021100008950E94F00E88F09F5798F0B92F9927E4
:10212000B751B0F0E1F0660F771F881F991F1AF0C2
:10213000BA95C9F714C0B13091F00E940A0FB1E00E
:1021400008950C940A0F672F782F8827B85F39F00D
:10215000B93FCCF3869577956795B395D9F73EF45B
:1021600090958095709561957F4F8F4F9F4F089503
:102170000E942F0E08F48FEF08950E942F0E880BF7
:10218000990B08950E94940FB7FF0895821B930B3B
:102190000895EE0FFF1F0590F491E02D09940F9321
:1021A0001F93CF93DF938230910510F482E090E08B
:1021B000E0918B03F0918C0330E020E0B0E0A0E0F0
:1021C000309799F42115310509F44AC0281B390BC1
:1021D00024303105D8F58A819B816115710589F11B
:1021E000FB0193838283FE0111C0408151810281F2
:1021F000138148175907E0F04817590799F41097C9
:1022000061F012960C93129713961C933296CF019D
:10221000DF91CF911F910F91089500938B0310933D
:102220008C03F4CF2115310551F04217530738F0D4
:10223000A901DB019A01BD01DF01F801C1CFEF0166
:10224000F9CF90938C0380938B03CDCFFE01E20FE7
:10225000F31F819391932250310939832883D7CF7B
:102260002091890330918A03232B41F4209143016B
:102270003091440130938A032093890320914101D6
:10228000309142012115310541F42DB73EB74091FF
:10229000450150914601241B350BE0918903F091D3
:1022A0008A03E217F307A0F42E1B3F0B2817390708
:1022B00078F0AC014E5F5F4F2417350748F04E0FA2
:1022C0005F1F50938A0340938903819391939FCF1B
:1022D000F0E0E0E09CCFCF93DF930097E9F0FC01C2
:1022E000329713821282A0918B03B0918C03ED017F
:1022F00030E020E01097A1F420813181820F931FFC
:102300002091890330918A032817390709F061C0A9
:10231000F0938A03E0938903DF91CF910895EA0156
:10232000CE17DF07E8F54A815B819E014115510513
:10233000B1F7E901FB83EA8349915991C40FD51F95
:10234000EC17FD0761F4808191810296840F951F3F
:10235000E90199838883828193819B838A83F0E05A
:10236000E0E012968D919C9113970097B9F52D910D
:102370003C911197CD010296820F931F2091890302
:1023800030918A032817390739F6309751F51092A2
:102390008C0310928B03B0938A03A0938903BCCF64
:1023A000D383C28340815181840F951FC817D907F9
:1023B00061F44E5F5F4F88819981480F591F5183A7
:1023C00040838A819B81938382832115310509F0A3
:1023D000B0CFF0938C03E0938B039ECFFD01DC0123
:1023E000C0CF13821282D7CFB0E0A0E0EAEFF1E1D4
:1023F0000C943D0F8C01009751F4CB010E94CF103B
:102400008C01C801CDB7DEB7E0E10C94590FFC0197
:10241000E60FF71F9C0122503109E217F30708F479
:102420009DC0D901CD91DC911197C617D70798F0BF
:10243000C530D10530F3CE0104978617970708F30E
:10244000C61BD70B2297C193D1936D937C93CF0179
:102450000E946B11D6CF5B01AC1ABD0A4C018C0EE9
:102460009D1EA0918B03B0918C03512C412CF12C1B
:10247000E12C109731F58091890390918A0388159A
:10248000990509F05CC04616570608F058C08091BF
:10249000410190914201009741F48DB79EB7409160
:1024A000450150914601841B950BE817F90708F088
:1024B00055C0F0938A03E0938903F9017183608327
:1024C000A0CF8D919C91119712966C9012971396B4
:1024D0007C901397A815B90559F56C0142E0C40E1C
:1024E000D11CCA14DB0420F1AC014A195B09DA01E2
:1024F0001296159780F06282738251834083D901CE
:102500006D937C93E114F10471F0D7011396FC9361
:10251000EE93129776CF22968C0F9D1FF90191832F
:102520008083F301EFCFF0938C03E0938B0369CFAB
:102530004816590608F42C017D01D3019ACFCB012E
:102540000E94CF107C01009749F0AE01B8010E94B3
:10255000B112C8010E946B11870153CF10E000E057
:1025600050CFFB01DC0102C001900D924150504060
:10257000D8F70895FB01DC0101900D920020E1F7EE
:062580000895F894FFCF5E
:102586001F1F1F1F1F1F1F1F001F1F1F1F1F1F1F74
:1025960000001F1F1F1F1F1F0000001F1F1F1F1FE0
:1025A600000000001F1F1F1F00000000001F1F1F4C
:1025B6000000000000001F1F000000000000001FB8
:1025C600FF00008D0380000000400014005400004E
:1025D60000000029028901B6017602E701C501D98A
:1025E6000100000000540327036A04FD0220030DC6
:1025F60003FE0200000000DB0489016A0496026EF5
:10260600616E00696E66006F76660043524F5744EE
:1026160020414E414C595A45520076322E302042C6
:102626004F4F54494E470043414C49425241544949
:102636004E472E2E2E003E0043414C4D20202000BA
:1026460041435449564520004558434954454400A2
:102656004348414F544943004D4F4F443A20005B95
:10266600444154415D205661723A00207C205065F9
:08267600616B3A000D0A00003F
:00000001FF
